:100000000C94BF0F0C94BF6B0C94946B0C94696BA5
:100010000C943E6B0C94136B0C94E86A0C94BD6AC0
:100020000C94926A0C94F00F0C94F00F0C94F00F57
:100030000C94F00F0C94F00F0C94F00F0C94F00F44
:100040000C94F00F0C94F00F0C94F00F0C94F00F34
:100050000C94843E0C94F00F0C94F00F0C944A6AAC
:100060000C94F00F0C94D93E0C94AF3E0C94F00F0E
:100070000C94F00F0C94F00F0C94F00F0C94F00F04
:100080000C94F00F0C94F00F0C94F00F0C94F00FF4
:100090000C945A3E0C94303E0C94F00F0C94BA3CE5
:1000A0000C94F00F0C94F00F0C94F00F0C94F00FD4
:1000B0000C94F00F0C94F00F0C94F00F0C94F00FC4
:1000C0000C94F00F0C94F00F0C94F00F0C94063E6F
:1000D0000C94DC3D0C94F00F0C94F00F0C94F00F8A
:1000E0000C94F00F0C9418200C9429610C94ED1FC3
:1000F0000C94C81C0C94E0220C94FE220C94B222A6
:100100000C94EA6B0C94A5170C94F26B0C940D23D1
:100110000C94EA220C9409200C94AD220C9420211A
:100120000C9489620C9421230C941B6A0C948161B9
:100130000C94EA1A0C942E170C941A1B0C94211888
:100140000C9460210C94E0180C945D620C9449218D
:100150000C942A210C9431620C94C6220C946121D7
:100160000C9432210C94EC1F0C94CB200C944D2158
:100170000C9416190C94BC220C9426210C94172371
:100180000C94D8220C9400190C94AD610C942E217F
:100190000C94FD6F0C943A200C94256A0C94C91CA5
:1001A0000C943D280C941A4A0C9469170C94C31FA4
:1001B0000C9484200C942B230C9435210C9435231F
:1001C0000C94771A0C9405620C9412180C94241A4F
:1001D0000C94D9610C9457210C9482490C94EE6BC9
:1001E0000C9465210C945E1E0C943B210C94111808
:1001F0000C943F230C94D0220C9471490C94892CBC
:100200000C94A6220C9445210C945B210C948360E1
:100210000C9453210C943F210C94381B0C94AD1773
:100220000C9455610C942C200C944E180C94F422D0
:100230006E616E00696E660000407A10F35A00A08D
:10024000724E18090010A5D4E80000E8764817009F
:1002500000E40B54020000CA9A3B000000E1F505DF
:10026000000080969800000040420F000000A08629
:1002700001000000102700000000E803000000005B
:100280006400000000000A000000000001000000FF
:1002900000002C76D888DC674F0823DFC1DFAE5919
:1002A000E1B1B796E5E3E453C63AE651997696E8AC
:1002B000E6C28426EB898C9B62ED407C6FFCEFBC30
:1002C0009C9F40F2BAA56FA5F490055A2AF75C935B
:1002D0006B6CF9676DC11BFCE0E40D47FEF520E691
:1002E000B500D0ED902E0300943577050080841E74
:1002F000080000204E0A000000C80C333333330FCF
:10030000986E12831141EF8D2114893BE65516CF6B
:10031000FEE6DB18D1844B381BF77C1D901DA4BB77
:10032000E424203284725E228100C9F124ECA1E52C
:100330003D2731302E3043202F2031302E300030F9
:10034000303A30303A3030005370656374726F6DFC
:10035000657465722053657373696F6E2073746181
:10036000727465642E0A00492D56204D65617375BF
:1003700072656D656E742053657373696F6E20735B
:100380007461727465642E0A00524541445900201C
:10039000202020302E30204C780020202020302EAD
:1003A00030206D410020202020302E3020562000AB
:1003B0004F4C454420004F4C454420495B6D415D06
:1003C00020555B565D2045765B4C75785D20455227
:1003D000520A00517569636B5465737420536573D9
:1003E00073696F6E20737461727465642E0A006E97
:1003F00065772044617465202F2054696D652073F2
:1004000065742E0A00534352532D253033642E62F7
:100410006D700000002200250028002B002E003106
:1004200000340002010000050108010B010000205A
:10043000002300260029002C002F003200000100BC
:1004400000030106010901253032642D2530326494
:100450002D2530326420253032643A253032643A1A
:1004600025303264203E3E200000000000003E5B4C
:100470004F5B3E3E6B4F6B3E1C3E7C3E1C183C7EF1
:100480003C181C577D571C1C5E7F5E1C00183C18D6
:1004900000FFE7C3E7FF0018241800FFE7DBE7FFD2
:1004A00030483A060E2629792926407F050507405F
:1004B0007F05253F5A3CE73C5A7F3E1C1C08081C20
:1004C0001C3E7F14227F22145F5F005F5F06097F5E
:1004D000017F006689956A606060606094A2FFA2F7
:1004E0009408047E040810207E201008082A1C08A6
:1004F000081C2A08081E101010100C1E0C1E0C30B0
:10050000383E3830060E3E0E0600000000000000A7
:100510005F00000007000700147F147F14242A7F67
:100520002A12231308646236495620500008070334
:1005300000001C2241000041221C002A1C7F1C2AB2
:1005400008083E0808008070300008080808080005
:100550000060600020100804023E5149453E004200
:100560007F400072494949462141494D33181412D0
:100570007F1027454545393C4A49493141211109F8
:10058000073649494936464949291E0000140000EA
:100590000040340000000814224114141414140004
:1005A0004122140802015909063E415D594E7C1250
:1005B00011127C7F494949363E414141227F4141E8
:1005C000413E7F494949417F090909013E41415165
:1005D000737F0808087F00417F41002040413F01B0
:1005E0007F081422417F404040407F021C027F7FF1
:1005F0000408107F3E4141413E7F090909063E4102
:1006000051215E7F09192946264949493203017F54
:1006100001033F4040403F1F2040201F3F403840E3
:100620003F631408146303047804036159494D437C
:10063000007F4141410204081020004141417F04F4
:1006400002010204404040404000030708002054DB
:100650005478407F2844443838444444283844443B
:10066000287F385454541800087E090218A4A49C0A
:10067000787F0804047800447D40002040403D001D
:100680007F1028440000417F40007C047804787C7F
:10069000080404783844444438FC182424181824E6
:1006A0002418FC7C08040408485454542404043FCF
:1006B00044243C4040207C1C2040201C3C403040D6
:1006C0003C44281028444C9090907C4464544C4402
:1006D00000083641000000770000004136080002A3
:1006E000010204023C2623263C1EA1A161123A40CD
:1006F00040207A3854545559215555794122545443
:100700007842215554784020545579400C1E52723D
:10071000123955555559395454545939555454581A
:100720000000457C410002457D420001457C407D42
:100730001211127DF0282528F07C545545002054D4
:10074000547C547C0A097F4932494949323A44442D
:10075000443A324A4848303A4141217A3A424020AC
:1007600078009DA0A07D3D4242423D3D4040403D3D
:100770003C24FF2424487E4943662B2FFC2F2BFF6B
:100780000929F620C0887E090320545479410000CD
:10079000447D413048484A32384040227A007A0A43
:1007A0000A727D0D19317D2629292F28262929290C
:1007B0002630484D4020380808080808080808383E
:1007C0002F10C8ACBA2F102834FA00007B000008A4
:1007D000142A142222142A14085500550055AA552B
:1007E000AA55AAFF55FF55FF000000FF001010108A
:1007F000FF00141414FF001010FF00FF1010F01081
:10080000F0141414FC001414F700FF0000FF00FFA4
:100810001414F404FC141417101F10101F101F14CC
:1008200014141F00101010F0000000001F10101012
:10083000101F10101010F010000000FF101010100A
:100840001010101010FF10000000FF140000FF0037
:10085000FF00001F10170000FC04F41414171017F9
:100860001414F404F40000FF00F714141414141406
:1008700014F700F7141414171410101F101F141479
:1008800014F4141010F010F000001F101F000000EE
:100890001F14000000FC140000F010F01010FF10F6
:1008A000FF141414FF141010101F00000000F010AB
:1008B000FFFFFFFFFFF0F0F0F0F0FFFFFF00000090
:1008C0000000FFFF0F0F0F0F0F3844443844FC4A5D
:1008D0004A4A347E02020606027E027E02635549BF
:1008E00041633844443C04407E201E2006027E02C0
:1008F0000299A5E7A5991C2A492A1C4C7201724C41
:10090000304A4D4D303048784830BC625A463D3E02
:10091000494949007E0101017E2A2A2A2A2A4444A3
:100920005F444440514A444040444A51400000FF23
:100930000103E080FF000008086B6B0836123624C4
:1009400036060F090F0600001818000000101000EE
:100950003040FF0101001F01011E00191D17120088
:100960003C3C3C3C00000000007C3C3E5E2B3D3F9C
:100970002F5B5D3B2C2A225C004F56455254454D5F
:1009800050004F50454E0053484F5254005245417D
:100990004459004F4B000A004F56455254454D50A4
:1009A0005F5448524F54544C494E47004F50454EA7
:1009B0000053484F5254004F4B00200020002000AD
:1009C0002000492D56204D6561737572656D656E09
:1009D0007420646F6E652E0A0000FF00FF010000A6
:1009E00000FF280000C02300C11000C52B2BC7C08A
:1009F000003688003A5500B1001B11000000FF29A5
:100A0000000000FF00FF53657373696F6E2077610C
:100A10007320737461727465642E0A002020202094
:100A200020202020202020202020202020207C7C0E
:100A300020202020207C7C0020202020202020201E
:100A4000202020202020202020207C7C2D2D2D2DBA
:100A500077207C0020202020202020202020202003
:100A60002020285F5F295C20202020202020295C76
:100A70002F5C0020202020202020202020205C200F
:100A800020286F6F295C5F5F5F5F5F5F5F002020E2
:100A900020202020202020205C2020205E5F5F5E20
:100AA00020002020202D2D2D2D2D2D2D2D2D2D2DD7
:100AB0002D2D2D2D2D2D2D2D2D2D2D2D2D2D2D2D66
:100AC0002D2D2D2D2D2D2D00203C2047726561747C
:100AD00020647564652E205374617274696E67209A
:100AE000696E2038207365636F6E64732E203E003C
:100AF0002020202D2D2D2D2D2D2D2D2D2D2D2D2D4D
:100B00002D2D2D2D2D2D2D2D2D2D2D2D2D2D2D2D15
:100B10002D2D2D2D2D00486572652069732C2077B1
:100B20006861742074686520636F772073617973DE
:100B30003A004F4C45442D253033642E74787400B0
:100B4000444F4E45003E204D6F746F7220447269D1
:100B5000766572004E4F205344003E203E205344A1
:100B6000204361726420666F756E642C20696E6923
:100B700074206661696C6564004641494C003E2002
:100B80003E205344204361726420666F756E642C6E
:100B900020766F6C756D65206661696C65642C20CC
:100BA00046415433323F004641494C0053442046AD
:100BB0004F554E44004641494C003E20534420735B
:100BC0006C6F7400444F4E45004641494C003E2036
:100BD00046543632303620746F7563682073656E04
:100BE000736F7200444F4E45003E204453333233FE
:100BF0003120636C6F636B004641494C00444F4E9B
:100C000045003E204849483631333020656E7669CC
:100C1000726F6E6D656E74206D6F6E69746F723A6F
:100C2000004641494C00444F4E45003E20506978F3
:100C3000656C2036004641494C00444F4E45003E0D
:100C400020506978656C2035004641494C00444F7E
:100C50004E45003E20506978656C2034004641497D
:100C60004C00444F4E45003E20506978656C20335F
:100C7000004641494C00444F4E45003E20506978A3
:100C8000656C2032004641494C00444F4E45003EC1
:100C900020506978656C203100206F662032003E5C
:100CA000203E20666F756E6420004641494C00442A
:100CB0004F4E45003E20453532323436204F4C45AC
:100CC00044206472697665727300206F6620360076
:100CD0003E203E20666F756E6420004641494C0000
:100CE000444F4E45003E20424831373530206C6934
:100CF000676874206D657465727300206F662036B6
:100D0000003E203E20666F756E6420004641494CCF
:100D100000444F4E45003E203E2049732073656ECF
:100D2000736F722068656164206D6F756E746564A1
:100D300020636F72726563746C793F003E203E20C1
:100D4000436865636B206F6E2D626F617264206310
:100D50006F6E6E656374696F6E732E004641494C09
:100D6000003E20494E4132323620766F6C74202F7F
:100D70002063757272656E74206D657465727300A0
:100D8000444F4E45003E203E20436865636B206F14
:100D90006E2D626F61726420636F6E6E656374693D
:100DA0006F6E7321004641494C003E205443414838
:100DB000656164204D756C7469706C65786572004E
:100DC000444F4E45003E205443416D61696E204DB5
:100DD000756C7469706C65786572004F4C45442081
:100DE00074657374206465766963652073746172D9
:100DF00074696E67000A0020000A0020008B7800EA
:100E0000009A790000A87A0000B77B0000C47C003B
:100E100000D27D0000E07E0000ED7F0000F9800040
:100E20000006820000128300001E8400002A850054
:100E30000035860000408700004A88000055890080
:100E4000005F8A0000698B0000728C00007B8D00BF
:100E500000848E00008C8F0000949000009C910014
:100E600000A3920000AA930000B0940000B7950080
:100E700000BC960000C2970000C7980000CC990003
:100E800000D09A0000D49B0000D89C0000DB9D009D
:100E900000DE9E0000E09F0000E2A00000E4A10050
:100EA00000E5A20000E6A30000E6A40000E6A5001D
:100EB00000E6A60000E5A70000E3A80000E2A90004
:100EC00000DFAA0000DDAB0000DAAC0000D6AD0008
:100ED00000D2AE0000CEAF0000C9B00000C4B10027
:100EE00000BEB20000B8B30000B2B40000AAB50062
:100EF00000A3B600009BB7000092B8000089B900BB
:100F00000080BA000076BB00006BBC000061BD0031
:100F10000055BE000049BF00003DC0000030C100C8
:100F20000023C2000015C3000006C40000F7C4007F
:100F300000E8C50000D8C60000C8C70000B7C80058
:100F400000A5C9000093CA000081CB00006ECC0050
:100F5000005ACD000046CE000031CF00001CD0006A
:100F60000006D10000F0D10000D9D20000C2D300A9
:100F700000AAD4000092D5000079D600005FD70007
:100F80000045D800002AD900000FDA0000F3DA008B
:100F900000D7DB0000BADC00009CDD00007EDE0034
:100FA0000060DF000040E0000021E1000000E200FE
:100FB00000DFE20000BEE300009CE4000079E500F1
:100FC0000056E6000032E700000DE80000E8E80007
:100FD00000C3E900009CEA000076EB00004EEC0044
:100FE0000026ED0000FDED0000D4EE0000AAEF00A9
:100FF0000080F0000055F1000029F20000FDF20031
:1010000000D0F30000A3F4000074F5000046F600E1
:101010000016F70000E6F70000B6F8000085F900BA
:101020000053FA000020FB0000EDFB0000BAFC00BA
:101030000085FD000050FE00001BFF0000E5FF00E2
:1010400000AE000100760101003E0201000603012E
:1010500000CC03010092040100580501001C0601A8
:1010600000E0060100A4070100670801002909014A
:1010700000EB090100AC0A01006C0B01002C0C0113
:1010800000EB0C0100A90D0100670E0100240F0107
:1010900000E00F01009C1001005711010012120125
:1010A00000CC120100851301003E140100F614016A
:1010B00000AD150100641601001A170100CF1701D9
:1010C000008418010038190100EC1901009F1A0171
:1010D00000511B0100031C0100B41C0100641D0130
:1010E00000141E0100C31E0100711F01001F20011A
:1010F00000CC2001007821010024220100CF220130
:10110000007A23010024240100CD2401007625016A
:10111000001E260100C62601006C270100122801CE
:1011200000B82801005D290100012A0100A52A015B
:1011300000482B0100EA2B01008C2C01002D2D0111
:1011400000CE2D01006E2E01000D2F0100AC2F01ED
:10115000004A300100E730010084310100203201F3
:1011600000BC32010057330100F13301008B340120
:101170000024350100BD35010055360100EC360173
:10118000008337010019380100AF380100443901EC
:1011900000D93901006C3A0100003B0100923B018B
:1011A00000243C0100B63C0100473D0100D73D0151
:1011B00000673E0100F63E0100853F01001340013B
:1011C00000A14001002E410100BA41010046420148
:1011D00000D14201005C430100E64301007044017C
:1011E00000F94401008145010009460100914601D2
:1011F00000184701009E47010024480100A948014A
:10120000002E490100B3490100364A0100BA4A01E3
:10121000003C4B0100BF4B0100414C0100C24C019E
:1012200000434D0100C34D0100434E0100C24E0179
:1012300000414F0100BF4F01003D500100BA500175
:101240000037510100B451010030520100AB52018E
:101250000027530100A15301001B540100955401C4
:10126000000E550100875501000056010078560117
:1012700000EF56010067570100DD5701000A008B9F
:101280007800009A790000A87A0000B77B0000C4BB
:101290007C0000D27D0000E07E0000ED7F0000F9C0
:1012A00080000006820000128300001E8400002AD5
:1012B00085000035860000408700004A8800005500
:1012C0008900005F8A0000698B0000728C00007B3F
:1012D0008D0000848E00008C8F0000949000009C94
:1012E000910000A3920000AA930000B0940000B700
:1012F000950000BC960000C2970000C7980000CC83
:10130000990000D09A0000D49B0000D89C0000DB1C
:101310009D0000DE9E0000E09F0000E2A00000E4CF
:10132000A10000E5A20000E6A30000E6A40000E69C
:10133000A50000E6A60000E5A70000E3A80000E283
:10134000A90000DFAA0000DDAB0000DAAC0000D687
:10135000AD0000D2AE0000CEAF0000C9B00000C4A6
:10136000B10000BEB20000B8B30000B2B40000AAE1
:10137000B50000A3B600009BB7000092B80000893A
:10138000B9000080BA000076BB00006BBC000061B1
:10139000BD000055BE000049BF00003DC000003048
:1013A000C1000023C2000015C3000006C40000F7FE
:1013B000C40000E8C50000D8C60000C8C70000B7D8
:1013C000C80000A5C9000093CA000081CB00006ED0
:1013D000CC00005ACD000046CE000031CF00001CEA
:1013E000D0000006D10000F0D10000D9D20000C228
:1013F000D30000AAD4000092D5000079D600005F87
:10140000D7000045D800002AD900000FDA0000F309
:10141000DA0000D7DB0000BADC00009CDD00007EB3
:10142000DE000060DF000040E0000021E10000007D
:10143000E20000DFE20000BEE300009CE40000796F
:10144000E5000056E6000032E700000DE80000E885
:10145000E80000C3E900009CEA000076EB00004EC3
:10146000EC000026ED0000FDED0000D4EE0000AA27
:10147000EF000080F0000055F1000029F20000FDAF
:10148000F20000D0F30000A3F4000074F500004661
:10149000F6000016F70000E6F70000B6F800008539
:1014A000F9000053FA000020FB0000EDFB0000BA39
:1014B000FC000085FD000050FE00001BFF0000E561
:1014C000FF0000AE000100760101003E02010006AF
:1014D000030100CC03010092040100580501001C27
:1014E000060100E0060100A40701006708010029C9
:1014F000090100EB090100AC0A01006C0B01002C92
:101500000C0100EB0C0100A90D0100670E01002485
:101510000F0100E00F01009C1001005711010012A3
:10152000120100CC120100851301003E140100F6E7
:10153000140100AD150100641601001A170100CF57
:101540001701008418010038190100EC1901009FEF
:101550001A0100511B0100031C0100B41C010064AE
:101560001D0100141E0100C31E0100711F01001F98
:10157000200100CC2001007821010024220100CFAD
:101580002201007A23010024240100CD24010076E9
:101590002501001E260100C62601006C270100124D
:1015A000280100B82801005D290100012A0100A5D9
:1015B0002A0100482B0100EA2B01008C2C01002D90
:1015C0002D0100CE2D01006E2E01000D2F0100AC6B
:1015D0002F01004A300100E7300100843101002072
:1015E000320100BC32010057330100F13301008B9E
:1015F00034010024350100BD35010055360100ECF1
:101600003601008337010019380100AF380100446A
:10161000390100D93901006C3A0100003B01009208
:101620003B0100243C0100B63C0100473D0100D7CE
:101630003D0100673E0100F63E0100853F010013B9
:10164000400100A14001002E410100BA41010046C5
:10165000420100D14201005C430100E643010070F9
:10166000440100F94401008145010009460100914F
:10167000460100184701009E47010024480100A9C7
:101680004801002E490100B3490100364A0100BA61
:101690004A01003C4B0100BF4B0100414C0100C21C
:1016A0004C0100434D0100C34D0100434E0100C2F7
:1016B0004E0100414F0100BF4F01003D500100BAF3
:1016C00050010037510100B451010030520100AB0C
:1016D00052010027530100A15301001B5401009542
:1016E0005401000E55010087550100005601007895
:1016F000560100EF56010067570100DD5701000A4F
:101700000A6C616D6264615B6E6D5D20696E74650B
:101710006E736974795B612E752E5D0A006D7300BE
:101720002C207428696E74656729203D20004F566F
:10173000455254454D505F5448524F54544C494EB5
:1017400047004F50454E0053484F5254004F4B00F6
:10175000562C204552523A20006D412C2055203DF8
:1017600020002C2049203D200044617461206171DB
:101770007569736974696F6E2073746172746564DE
:101780003A204F4C454420000A004F5645525445DC
:101790004D505F5448524F54544C494E47004F509F
:1017A000454E0053484F5254004F4B00200020003C
:1017B0002000495B6D415D20555B565D2045765BA1
:1017C0004C75785D204552520A000A004D656173E0
:1017D0007572656D656E7420737461727465643AB8
:1017E000204F4C454420004C6F672046696C653A99
:1017F0002000486F74706C75673A205344207265FE
:101800006D6F7665642E00486F74706C75673A2052
:10181000534420696E7365727465642E00486F745A
:10182000706C756720455854323A20737065637444
:10183000726F6D657465722061747461636865644C
:101840002E00486F74706C756720455854323A20EA
:101850006D6963726F73636F706520617474616327
:101860006865642E00486F74706C75672045585425
:10187000323A207370656374726F6D65746572209F
:1018800072656D6F7665642E00486F74706C756755
:1018900020455854323A206D6963726F73636F70DC
:1018A000652072656D6F7665642E00486F74706C8C
:1018B000756720455854313A207370656374726FB0
:1018C0006D657465722061747461636865642E006F
:1018D000486F74706C756720455854313A206D69B3
:1018E00063726F73636F70652061747461636865A0
:1018F000642E00486F74706C756720455854313AF7
:10190000207370656374726F6D65746572207265A3
:101910006D6F7665642E00486F74706C7567204536
:101920005854313A206D6963726F73636F7065202C
:1019300072656D6F7665642E004C6F672046696C2A
:10194000653A2000253032643A253032643A253039
:1019500032640000002100240027002A002D0030FE
:1019600000330001010000040107010A0101021017
:1019700020200808102040102040800201020108A9
:101980000402010102040810204080804020100859
:1019900004020180040201804020100804020108B2
:1019A0000402010102040810204080010204081012
:1019B000204080044080048008101020400408105B
:1019C00020408005050505070508080808020202F1
:1019D000020A0A08080404040401010101010101CA
:1019E000010303030303030303040707070C0C0CA1
:1019F0000C0C0C0C0C020202020606060606060679
:101A0000060B0B0B0B0B0B0B0B050505080807074B
:101A10000404040A0A0A0A0A0A00000000003E5BE5
:101A20004F5B3E3E6B4F6B3E1C3E7C3E1C183C7E2B
:101A30003C181C577D571C1C5E7F5E1C00183C1810
:101A400000FFE7C3E7FF0018241800FFE7DBE7FF0C
:101A500030483A060E2629792926407F0505074099
:101A60007F05253F5A3CE73C5A7F3E1C1C08081C5A
:101A70001C3E7F14227F22145F5F005F5F06097F98
:101A8000017F006689956A606060606094A2FFA231
:101A90009408047E040810207E201008082A1C08E0
:101AA000081C2A08081E101010100C1E0C1E0C30EA
:101AB000383E3830060E3E0E0600000000000000E2
:101AC0005F00000007000700147F147F14242A7FA2
:101AD0002A1223130864623649562050000807036F
:101AE00000001C2241000041221C002A1C7F1C2AED
:101AF00008083E0808008070300008080808080040
:101B00000060600020100804023E5149453E00423A
:101B10007F400072494949462141494D331814120A
:101B20007F1027454545393C4A4949314121110932
:101B3000073649494936464949291E000014000024
:101B4000004034000000081422411414141414003E
:101B50004122140802015909063E415D594E7C128A
:101B600011127C7F494949363E414141227F414122
:101B7000413E7F494949417F090909013E4141519F
:101B8000737F0808087F00417F41002040413F01EA
:101B90007F081422417F404040407F021C027F7F2B
:101BA0000408107F3E4141413E7F090909063E413C
:101BB00051215E7F09192946264949493203017F8F
:101BC00001033F4040403F1F2040201F3F4038401E
:101BD0003F631408146303047804036159494D43B7
:101BE000007F4141410204081020004141417F042F
:101BF0000201020440404040400003070800205416
:101C00005478407F28444438384444442838444475
:101C1000287F385454541800087E090218A4A49C44
:101C2000787F0804047800447D40002040403D0057
:101C30007F1028440000417F40007C047804787CB9
:101C4000080404783844444438FC18242418182420
:101C50002418FC7C08040408485454542404043F09
:101C600044243C4040207C1C2040201C3C40304010
:101C70003C44281028444C9090907C4464544C443C
:101C800000083641000000770000004136080002DD
:101C9000010204023C2623263C1EA1A161123A4007
:101CA00040207A385454555921555579412254547D
:101CB0007842215554784020545579400C1E527278
:101CC0001239555555593954545459395554545855
:101CD0000000457C410002457D420001457C407D7D
:101CE0001211127DF0282528F07C5455450020540F
:101CF000547C547C0A097F4932494949323A444468
:101D0000443A324A4848303A4141217A3A424020E6
:101D100078009DA0A07D3D4242423D3D4040403D77
:101D20003C24FF2424487E4943662B2FFC2F2BFFA5
:101D30000929F620C0887E09032054547941000007
:101D4000447D413048484A32384040227A007A0A7D
:101D50000A727D0D19317D2629292F282629292946
:101D60002630484D40203808080808080808083878
:101D70002F10C8ACBA2F102834FA00007B000008DE
:101D8000142A142222142A14085500550055AA5565
:101D9000AA55AAFF55FF55FF000000FF00101010C4
:101DA000FF00141414FF001010FF00FF1010F010BB
:101DB000F0141414FC001414F700FF0000FF00FFDF
:101DC0001414F404FC141417101F10101F101F1407
:101DD00014141F00101010F0000000001F1010104D
:101DE000101F10101010F010000000FF1010101045
:101DF0001010101010FF10000000FF140000FF0072
:101E0000FF00001F10170000FC04F4141417101733
:101E10001414F404F40000FF00F714141414141440
:101E200014F700F7141414171410101F101F1414B3
:101E300014F4141010F010F000001F101F00000028
:101E40001F14000000FC140000F010F01010FF1030
:101E5000FF141414FF141010101F00000000F010E5
:101E6000FFFFFFFFFFF0F0F0F0F0FFFFFF000000CA
:101E70000000FFFF0F0F0F0F0F3844443844FC4A97
:101E80004A4A347E02020606027E027E02635549F9
:101E900041633844443C04407E201E2006027E02FA
:101EA0000299A5E7A5991C2A492A1C4C7201724C7B
:101EB000304A4D4D303048784830BC625A463D3E3D
:101EC000494949007E0101017E2A2A2A2A2A4444DE
:101ED0005F444440514A444040444A51400000FF5E
:101EE0000103E080FF000008086B6B0836123624FF
:101EF00036060F090F060000181800000010100029
:101F00003040FF0101001F01011E00191D171200C2
:101F10003C3C3C3C000000000000000B0C030A0DA0
:101F20000E0F090804050200000000000000000078
:101F300000000000000000000000000000000000A1
:101F4000000000000013121100000000000000005B
:101F50000000000000000000000000000000000081
:101F60000000000000000000000000000000001F52
:101F70001C1F1E1F1E1F1F1E1F1E1F00FD6F112472
:101F80001FBECFEFD1E2DEBFCDBF00E00CBF24E12A
:101F9000AAECB3E001C01D92A937B207E1F713E044
:101FA000A0E0B2E0E0EBFBE201E00BBF02C0079073
:101FB0000D92AA3CB107D9F71FE0CFEBDFE000E0BC
:101FC00006C021970109802FFE010E945F95CE3B3C
:101FD000D10780E00807A9F70E9470730C94D28D96
:101FE0000C940000FC01A089B18982E08C93A48547
:101FF000B5851C92A685B78580E18C93108EA48947
:10200000B58986E08C93A289B3898C9180618C9389
:10201000A289B3898C9188608C93A289B3898C91B1
:1020200080688C930288F389E02D80818F7D808386
:102030000895AF92CF92EF92FF920F93FC0182E549
:102040009CE0908B878783E59CE0928B818B748BDF
:10205000638B568B458B308F278B018FE28EC38E1F
:10206000A48E118212821382148215821682178224
:1020700010861186128613861486158690E080E0FD
:10208000F12C9701082E02C0359527950A94E2F7A6
:1020900020FF03C020812F5F2083019688309105A7
:1020A00081F70F91FF90EF90CF90AF9008952F920E
:1020B0003F924F925F926F927F928F929F92AF92D8
:1020C000BF92CF92DF92EF92FF920F931F93CF9325
:1020D000DF9300D00F92CDB7DEB78B839C836B016B
:1020E0005A0166246394712C10E000E094E0E92E1C
:1020F000F12C38EF432E55245A944DEF842E992419
:102100009A94822F84708983A22FA270AA83B22FFF
:10211000B8702B2E2170322E0F5F1F4FB2E06B0E66
:10212000711C860C971C8981882321F1AB81BC81AD
:10213000ED91FC9111970084F185E02D2FEF3FEF99
:10214000A7014A0D5B1DB601600F711FCD011995E6
:10215000AB81BC81ED91FC9111970084F185E02D5C
:102160002FEF3FEFA501400F511FB7016C0D7D1DF3
:10217000CD011995BA81BB2321F1AB81BC81ED91D1
:10218000FC9111970084F185E02D2FEF3FEFA50121
:102190004E195F09B601600F711FCD011995AB8112
:1021A000BC81ED91FC9111970084F185E02D2FEF1A
:1021B0003FEFA501401B510BB7016C0D7D1DCD01FB
:1021C0001995222091F1AB81BC81ED91FC91119781
:1021D0000084F185E02D2FEF3FEFA501400F511F47
:1021E000B6016E197F09CD011995AB81BC81ED91C6
:1021F000FC9111970084F185E02D2FEF3FEFA701AF
:102200004A0D5B1DB601601B710BCD0119950E15B2
:102210001F056CF597FC80CF81E0E81AF108A2E079
:102220004A0E511C840C951C77CF332081F3AB816F
:10223000BC81ED91FC9111970084F185E02D2FEF89
:102240003FEFA501401B510BB6016E197F09CD016F
:102250001995AB81BC81ED91FC9111970084F185BA
:10226000E02D2FEF3FEFA5014E195F09CBCF0F9067
:102270000F900F900F90DF91CF911F910F91FF90D2
:10228000EF90DF90CF90BF90AF909F908F907F9016
:102290006F905F904F903F902F9008952F923F92B4
:1022A0004F925F926F927F928F929F92AF92BF9266
:1022B000CF92DF92EF92FF920F931F93CF93DF9312
:1022C000EC016B017A0129013801121613060CF09A
:1022D00074C0101611060CF070C0490188E0881A0D
:1022E00091085B0184E0A80EB11CE881F9810684A5
:1022F000F785E02D0FEF1FEF9401B501CE01199581
:1023000013012E0C3F1CA10141505109E881F981B4
:102310000684F785E02D9401B501CE01199588E07A
:10232000681A710884E0E80EF11CE881F9810484E0
:10233000F585E02D9301A701B601CE011995C40CD6
:10234000D51CB60161507109E881F9810484F585D5
:10235000E02D9301A701CE01199521E0A701B50158
:10236000CE010E94571085E0C81AD10822E0A701CB
:10237000B601CE010E94571085E0281A310824E0EA
:10238000A101B601CE010E94571028E0A101B501BC
:10239000CE01DF91CF911F910F91FF90EF90DF90D1
:1023A000CF90BF90AF909F908F907F906F905F90F5
:1023B0004F903F902F900C945710DF91CF911F9129
:1023C0000F91FF90EF90DF90CF90BF90AF909F90D4
:1023D0008F907F906F905F904F903F902F900895D7
:1023E000CF92DF92EF92FF920F931F93CF93DF93E1
:1023F000FC012AEC38E03183208333832283A8E078
:10240000B0E0B583A483C7E1D0E0D783C6838CE670
:1024100090E091878087938782874DE453E25587C8
:10242000448764EB72E077876687318B208B6CE79B
:1024300070E0738B628BD58BC48B978B868B918F5F
:10244000808F538F428FCFEBD2E0D58FC48F378FE1
:10245000268FB1A3A0A3CBE8D0E0D3A3C2A395A3BA
:1024600084A397A386A351A740A709EC12E013A762
:1024700002A735A724A777A766A7D1ABC0AB93ABBC
:1024800082AB95AB84AB57AB46ABC2EDD2E0D1AFDC
:10249000C0AF33AF22AFB5AFA4AFCFEFD0E0D7AF6F
:1024A000C6AFDF01A05CBF4F8D939C938F010E5B85
:1024B0001F4FA2E3CA2ED12CD801CD92DC920E5F21
:1024C0001F4FD8014D935C930E5F1F4FBFEDEB2E56
:1024D000B2E0FB2ED801ED92FC92E85BFF4F318316
:1024E000208373836283D583C48397838683D18655
:1024F000C0865387428789EE92E095878487DF9173
:10250000CF911F910F91FF90EF90DF90CF900895A2
:10251000CF92DF92EF92FF92CF93DF9300D00F9292
:10252000CDB7DEB76A017B012CE222B921EF21BBD6
:1025300023EF21BB981344C492B995EF87EF40383D
:1025400051056105710508F405C291BB81BB91BBC2
:1025500081BB91BB81BB91BB81BB91BB81BB91BB5B
:1025600081BB91BB81BB91BB81BB91BB81BB91BB4B
:1025700081BB91BB81BB91BB81BB91BB81BB91BB3B
:1025800081BB91BB81BB91BB81BB91BB81BB91BB2B
:1029400081BB91BB81BB91BB81BB405851096109DF
:102950007109F5CDA701960167E056954795379522
:1029600027956A95D1F7A0E8BFEF0E947995AB0152
:10297000BC014C0D5D1D6E1D7F1DC6FE02C195EF95
:1029800091BB87EF81BB91BB81BB91BB81BB91BBED
:1029900081BB91BB81BB91BB81BB91BB81BB91BB17
:1029A00081BB91BB81BB91BB81BB91BB81BB91BB07
:1029B00081BB91BB81BB91BB81BB91BB81BB91BBF7
:1029C00081BB91BB81BB91BB81BB91BB81BB91BBE7
:1029D00081BB91BB81BB91BB81BB91BB81BB91BBD7
:1029E00081BB91BB81BB91BB81BB91BB81BB91BBC7
:1029F00081BB91BB81BB91BB81BB91BB81BB91BBB7
:102A000081BB91BB81BB91BB81BB91BB81BB91BBA6
:102A100081BB91BB81BB91BB81BB91BB81BB91BB96
:102A200081BB91BB81BB91BB81BB91BB81BB91BB86
:102A300081BB91BB81BB91BB81BB91BB81BB91BB76
:102A400081BB91BB81BB91BB81BB91BB81BB91BB66
:102A500081BB91BB81BB91BB81BB91BB81BB91BB56
:102A600081BB91BB81BB91BB81BB91BB81BB91BB46
:102A700081BB91BB81BB91BB81BB91BB81BB91BB36
:102A800081BB91BB81BB91BB81BB91BB81BB91BB26
:102A900081BB91BB81BB91BB81BB91BB81BB91BB16
:102AA00081BB91BB81BB91BB81BB91BB81BB91BB06
:102AB00081BB91BB81BB91BB81BB91BB81BB91BBF6
:102AC00081BB91BB81BB91BB81BB91BB81BB91BBE6
:102AD00081BB91BB81BB91BB81BB91BB81BB91BBD6
:102AE00081BB91BB81BB91BB81BB91BB81BB91BBC6
:102AF00081BB91BB81BB91BB81BB91BB81BB91BBB6
:102B000081BB91BB81BB91BB81BB91BB81BB91BBA5
:102B100081BB91BB81BB91BB81BB91BB81BB91BB95
:102B200081BB91BB81BB91BB81BB91BB81BB91BB85
:102B300081BB91BB81BB91BB81BB91BB81BB91BB75
:102B400081BB91BB81BB91BB81BB91BB81BB91BB65
:102B500081BB91BB81BB91BB81BB91BB81BB91BB55
:102B600081BB91BB81BB91BB81BB91BB81BB91BB45
:102B700081BB91BB81BB91BB81BB91BB81BB91BB35
:102B800081BB45FF82C095EF91BB87EF81BB91BBB5
:102B900081BB91BB81BB91BB81BB91BB81BB91BB15
:102BA00081BB91BB81BB91BB81BB91BB81BB91BB05
:102BB00081BB91BB81BB91BB81BB91BB81BB91BBF5
:102BC00081BB91BB81BB91BB81BB91BB81BB91BBE5
:102BD00081BB91BB81BB91BB81BB91BB81BB91BBD5
:102BE00081BB91BB81BB91BB81BB91BB81BB91BBC5
:102BF00081BB91BB81BB91BB81BB91BB81BB91BBB5
:102C000081BB91BB81BB91BB81BB91BB81BB91BBA4
:102C100081BB91BB81BB91BB81BB91BB81BB91BB94
:102C200081BB91BB81BB91BB81BB91BB81BB91BB84
:102C300081BB91BB81BB91BB81BB91BB81BB91BB74
:102C400081BB91BB81BB91BB81BB91BB81BB91BB64
:102C500081BB91BB81BB91BB81BB91BB81BB91BB54
:102C600081BB91BB81BB91BB81BB91BB81BB91BB44
:102C700081BB91BB81BB91BB81BB91BB81BB91BB34
:102C800081BB91BB81BB91BB81BB44FF42C095EF2F
:102C900091BB87EF81BB91BB81BB91BB81BB91BBDA
:102CA00081BB91BB81BB91BB81BB91BB81BB91BB04
:102CB00081BB91BB81BB91BB81BB91BB81BB91BBF4
:102CC00081BB91BB81BB91BB81BB91BB81BB91BBE4
:102CD00081BB91BB81BB91BB81BB91BB81BB91BBD4
:102CE00081BB91BB81BB91BB81BB91BB81BB91BBC4
:102CF00081BB91BB81BB91BB81BB91BB81BB91BBB4
:102D000081BB91BB81BB91BB81BB91BB81BB91BBA3
:102D100081BB43FF22C095EF91BB87EF81BB91BB85
:102D200081BB91BB81BB91BB81BB91BB81BB91BB83
:102D300081BB91BB81BB91BB81BB91BB81BB91BB73
:102D400081BB91BB81BB91BB81BB91BB81BB91BB63
:102D500081BB91BB81BB91BB81BB42FF12C095EF90
:102D600091BB87EF81BB91BB81BB91BB81BB91BB09
:102D700081BB91BB81BB91BB81BB91BB81BB91BB33
:102D800081BB41FF0AC095EF91BB87EF81BB91BB2F
:102D900081BB91BB81BB91BB81BB40FF06C095EF5E
:102DA00091BB87EF81BB91BB81BB0F900F900F90C0
:102DB0000F90DF91CF91FF90EF90DF90CF9008952B
:102DC00025E076956795579547952A95D1F725EF94
:102DD00037EF41505109A0F164E092B921BB31BBFA
:102DE00082B921BB31BB92B921BB31BB82B921BBB6
:102DF00031BB92B921BB31BB82B921BB31BB92B986
:102E000021BB31BB82B921BB31BB92B921BB31BBE4
:102E100082B921BB31BB92B921BB31BB82B921BB85
:102E200031BB92B921BB31BB82B921BB31BB92B955
:102E300021BB31BB82B921BB31BB615071F6C9CF17
:102E40004C2D4F7135EF27EF415008F4AECF92B9BA
:102E500031BB21BB82B931BB21BBF6CF90919B0620
:102E600080919A062FEF3FEF981748F4E92FF0E092
:102E7000E658F94F208130E09F5F90939B06C9018F
:102E8000089590919B0680919A062FEF3FEF981737
:102E900048F4E92FF0E0E658F94F208130E09F5FD9
:102EA00090939B06C9010895682FE0919C06F091CC
:102EB0009D060190F081E02D8CE996E0199491E057
:102EC00090932A0680932C0610922B0610922D06C2
:102ED000089580919A0690919B06891B990B0895FD
:102EE0002CE222B921EF21BB23EF21BB92B925EFC0
:102EF00021BB97EF91BB82B921BB91BB089583E0C1
:102F000090E00197F1F70895E82FF0E0EE0FFF1F32
:102F1000EA5FFD4F71836083873041F080916A00E2
:102F20008F7C806280936A00EE9A089580916A0097
:102F30008F73806880936A00EF9A089585EA97E11D
:102F40009093260680932506089508958DEA97E1CB
:102F5000909324068093230608950895FC01CB01E5
:102F6000BA012381348128173907A4F44781508599
:102F7000240F351F821793076CF48581968186177D
:102F8000970744F421853285280F391F81E06217A5
:102F900073070CF080E00895FC01CB01BA01228197
:102FA000338128173907A4F446815781240F351F30
:102FB000821793076CF4848195818617970744F4F0
:102FC00020853185280F391F81E0621773070CF0C7
:102FD00080E0089520910006260F3327331F213209
:102FE0003105ECF420917406FC0190E080E024307F
:102FF00069F082E00895A09100062191AC01405251
:103000005A4FA40FB52FB11D2C930196861798F334
:1030100080910006680F6093000680E0089581E0CB
:1030200008950895E0919B0680919A06E81730F480
:10303000F0E0E658F94F808190E008958FEF9FEF20
:103040000895CF92DF92EF92FF920F931F93CF9349
:10305000DF937C01CB018A0120912A06222389F08B
:10306000EB016B01C40ED51ECC15DD0569F069912D
:10307000D701ED91FC910190F081E02DC7011995E8
:10308000F3CF642F0E94EA17C801DF91CF911F91FF
:103090000F91FF90EF90DF90CF900895CF93DF9343
:1030A0000F92CDB7DEB7FC01698380912A06882391
:1030B000F1F080912D06803250F081E090E0938312
:1030C000828390E080E00F90DF91CF91089580910E
:1030D0002B06E82FF0E0E25DF94F998190838F5F36
:1030E00080932B0680932D0681E090E0ECCF61E089
:1030F000CE0101960E94EA17F7CF8FB7F89480911E
:10310000D5038FBF08958EBD00000DB407FEFDCF1F
:103110008EB508958FEF0C9483188CBD9DBD0895D6
:10312000FC01DB0112968D919C911397938382830E
:103130008CEA92E09183808314968C911497848317
:1031400015968C911597858316964D915D916D918D
:103150007C91199746835783608771871A964D91A2
:103160005D916D917C911D97428753876487758728
:103170001E964D915D916D917C9151974687578731
:10318000608B718B52968C915297828B53964D9196
:103190005D916D917C915697438B548B658B768BAB
:1031A00057964D915D916D917C915A97478B508FB9
:1031B000618F728F5B968D919C91948F838F089510
:1031C000DC015996ED91FC913097B9F0838994898F
:1031D000A589B6894285538564857585841B950BC1
:1031E000A60BB70B811520E89207A105B10538F0B1
:1031F0008FEF9FE7A0E0B0E0089590E080E00895B1
:10320000CF93DF930F92CDB7DEB7DC016983ED91E9
:10321000FC910280F381E02D41E050E0BE016F5F40
:103220007F4F19950F90DF91CF9108952F923F9284
:103230004F925F926F927F928F929F92AF92BF92C6
:10324000CF92DF92EF92FF920F931F93CF93DF9372
:1032500000D00F92CDB7DEB76B014B835C83590171
:10326000C801E982FA82A8012B813C81421B530BE1
:1032700057FF03C051954195510995012C193D09FE
:1032800037FF03C0319521953109241735075CF4C8
:103290007A2D6B2D5C01872F962F7C2D6D2DCB8089
:1032A000DC807B836C83AC14BD045CF47B816C811B
:1032B0009C838B83872F962F7C2D6D2D6501A72EE8
:1032C000B62E7501EC18FD084C016B817C81861AC5
:1032D000970A97FE03C09194819491088701F7FEA5
:1032E00002C00F5F1F4F159507956B817C81662487
:1032F0006A94762C681779071CF466246394712C01
:10330000241735070CF045C08AE282B981EF81BBF2
:1033100083EF81BB7C8172B995EF91BB87EF81BB55
:103320002B8122B991BB81BB41EF342E53EF252E67
:1033300065EF562E77EF472EAC14BD040CF46DC02C
:103340003BE232B931BA21BAD2B851BA41BAC2B8A5
:1033500051BA41BA89819A810E94701708191909D6
:1033600017FF13C06B817C81660D771D7C836B8397
:103370007AE272B931BA21BA8C8182B951BA41BAB2
:1033800062B951BA41BA0E0D1F1D9FEFC91AD90A71
:10339000D3CF8BE282B981EF81BB83EF81BB2C81DC
:1033A00022B995EF91BB87EF81BB3B8132B991BBCD
:1033B00081BB81EF282E93EF392E25EF522E37EF68
:1033C000432EAC14BD044CF16AE262B921BA31BAA1
:1033D000D2B851BA41BAC2B851BA41BA89819A81B8
:1033E0000E9470170819190917FF13C08B819C815F
:1033F000860D971D9C838B839BE292B921BA31BACB
:103400002C8122B951BA41BA82B951BA41BA0E0DD2
:103410001F1D3FEFC31AD30AD4CF0F900F900F9008
:103420000F90DF91CF911F910F91FF90EF90DF9060
:10343000CF90BF90AF909F908F907F906F905F9054
:103440004F903F902F9008951F93FC01CB01BA013C
:10345000A901121613060CF048C077FD46C022855C
:103460003385621773070CF040C0208531858217C1
:103470009307DCF5DA01A80FB91FFD013197F7FDBD
:1034800034C097FF03C0AD0190E080E0E217F3077E
:103490001CF0A901481B590B2BE222B9F1EFF1BB3B
:1034A000E3EFE1BB72B935EF31BB27EF21BB62B966
:1034B00031BB21BB6AE262B9F1BBE1BB92B931BB5E
:1034C00021BB82B931BB21BB70E060E0812F90E06D
:1034D00021E031E0FC01E29FC001E39F900DF29FEB
:1034E000900D11241F910C9488121F910895DF9262
:1034F000EF92FF920F931F93CF93DF937C01FB0119
:10350000BA01A901C801121613060CF05BC0F7FD41
:1035100059C0D70118962D913C911997E217F307DE
:103520000CF050C01A962D913C91621773070CF065
:1035300049C0EB01C40FD51FDE011197B7FD42C092
:1035400077FF03C0AE0170E060E0A217B3071CF084
:10355000A901461B570B2AE2D22ED2B801EF01BBBC
:1035600013EF11BBF2B9D5EFD1BBC7EFC1BBE2B9C5
:10357000D1BBC1BBF2B9D1BBC1BBE2B9D1BBC1BBED
:103580002BE222B901BB11BB72B9D1BBC1BB62B97D
:10359000D1BBC1BB052E000C660B770B0E948812B5
:1035A000D2B801BB11BB12B8D1BBC1BB12B8D1BBE1
:1035B000C1BBF701818582B9D1BBC1BB808582B90E
:1035C000D1BBC1BBDF91CF911F910F91FF90EF90C5
:1035D000DF900895DC01FB01BA01C901F7FD29C0A4
:1035E00057FD27C018962D913C911997E217F307C4
:1035F00004F51A962D913C9142175307D4F42AE210
:1036000022B931EF31BB23EF21BBF2B955EF51BBEA
:1036100047EF41BBE2B951BB41BBEBE2E2B931BB81
:1036200021BB72B951BB41BB62B951BB41BB0C94C8
:1036300070170895FB018AE282B941EF41BB33EF75
:1036400031BB12B825EF21BB97EF91BB21BB91BBDA
:103650008BE282B941BB31BB12B821BB91BB21BB0C
:1036600091BB40E05CE261E070E0CF010C94881215
:103670004F925F926F927F928F929F92AF92BF9282
:10368000CF92DF92EF92FF920F931F93CF93DF932E
:1036900000D000D0CDB7DEB73C012B01CA01D80164
:1036A0009E2C8F2C121613060CF07AC01A161B06CD
:1036B0000CF076C0F30160857185461657060CF054
:1036C0006FC002851385801791070CF069C06201F5
:1036D000C20ED31EA6014150510957FD61C07C01A5
:1036E000EA0EFB1E5701F1E0AF1AB108B7FC58C053
:1036F00057FE03C09601512C412C97FF03C0D70100
:1037000090E080E04617570734F0AB014150510973
:103710009B0124193509A016B1061CF0D801A81B7D
:10372000B90B6AE2E62EE2B871EFF72EF1BA03EFB9
:1037300001BB52B8E5EFDE2ED1BA17EF11BB42B88C
:10374000D1BA11BB52B9D1BA11BB42B9D1BA11BB6E
:103750004BE242B9F1BA01BB92B9D1BA11BB82B9FD
:10376000D1BA11BB0E94679569837A838B839C834E
:10377000AB01BC01892D982D0E948812E2B8F1BAE4
:1037800001BB12B8D1BA11BB12B8D1BA11BBF30147
:10379000818582B9D1BA11BB808582B9D1BA11BBFA
:1037A00026960FB6F894DEBF0FBECDBFDF91CF9146
:1037B0001F910F91FF90EF90DF90CF90BF90AF904F
:1037C0009F908F907F906F905F904F900895EF92B1
:1037D000FF920F931F93FC01808191818B5A9F4F21
:1037E000FC01028513850B5111092085318522507A
:1037F0003109F12CE12C40E150E061E070E00E94E1
:10380000381B1F910F91FF90EF9008958F929F9218
:10381000AF92BF92CF92DF92EF92FF920F931F93DE
:10382000CF93DF93EC01D12CC12C912C892CB12C9E
:10383000A12CEB84FC8449855A8557FF02C04F5F59
:103840005F4F559547958D819E81480F591F4C0DAF
:103850005D1D495051096F81788577FF02C06F5F08
:103860007F4F759567958B819C81680F791F6A0DD5
:103870007B1D6A5071098881998106E010E024E07F
:1038800030E08B5A9F4F0E94381B8A81881511F0B7
:10389000863069F549855A8557FF02C04F5F5F4FF3
:1038A000559547958D819E81480F591F4C0D5D1D83
:1038B000495051096F81788577FF02C06F5F7F4F54
:1038C000759567958B819C81680F791F6A0D7B1DAB
:1038D0006A50710988819981EE24EA94FE2C06E0F1
:1038E00010E024E030E08B5A9F4F0E94381B8394F5
:1038F00088E0A80EB11C88E1A816B10409F099CFA0
:1039000083E0980E8CE0C80ED11C86E098128ECF12
:10391000DF91CF911F910F91FF90EF90DF90CF90AB
:10392000BF90AF909F908F900895FC0182818F5F30
:1039300082839585891301C01282CF010C94061CE5
:10394000EF92FF920F931F93FC01DC01AA51BF4F2E
:103950000D911C9111970451110912972D913C91D1
:10396000119712974D915C911197475F5F4F129796
:103970006D917C9180819181EE24EA94FE2C8B5A8A
:103980009F4F0E94381B1F910F91FF90EF90089559
:1039900008952F923F924F925F926F927F928F92F3
:1039A0009F92AF92BF92CF92DF92EF92FF920F93CE
:1039B0001F93CF93DF93CDB7DEB72C970FB6F89454
:1039C000DEBF0FBECDBF8B879C876A3069F5AB85A4
:1039D000BC8554968C91B8E08B9F90011124EB85A7
:1039E000FC8586859785820F931F97878687158626
:1039F000148681E090E02C960FB6F894DEBF0FBEDF
:103A0000CDBFDF91CF911F910F91FF90EF90DF908D
:103A1000CF90BF90AF909F908F907F906F905F906E
:103A20004F903F902F9008956D3019F3AB85BC8572
:103A30001C96CD90DC901D9718968D919C91C81680
:103A4000D9068CF0EB85FC85248984859585F6E084
:103A50002F9F800D911D1124AB85BC851D969C93D5
:103A60008E931C97C6CFEB85FC8546845784828550
:103A700093854816590634F7F489F983AF2EB12C93
:103A8000C60126E0F29F800D911D1124181619061B
:103A9000CCF6C50133E0880F991F3A95E1F7840D04
:103AA000951D1816190674F6AB85BC8557968C9132
:103AB000811103C0603B08F06F5FEB85FC850288D5
:103AC000F389E02DFC83EB83AB85BC8550960D908C
:103AD000BC91A02DBE83AD83B5E06B9FB0011124D6
:103AE000FB01E759FB4FF887EF8316011A82FA8131
:103AF00080E0F53019F0EF81F88584913201912C46
:103B0000812C282F30E03A87298780FF3EC0AB8583
:103B1000BC85ED91FC91B981B13051F50084F185FE
:103B2000E02D2D813E81A201480D591DB6018B85E6
:103B30009C85199589859A8595958795EFEF8E1ABD
:103B40009E0A6A0C7B1CF8E08F169104D1F62A813C
:103B50002F5F2A833FEFC31AD30A2A0C3B1C8F81A5
:103B60009885019698878F83263009F0C0CF6ACF59
:103B70000288F389E02DED80FE8085019501A30187
:103B8000B1018B859C851995D5CFEB81FC812D8169
:103B90003E81E217F30771F2AB85BC85ED91FC9194
:103BA000B981B13031F40084F185E02D2B813C8165
:103BB000BACF0288F389E02DEB80FC80DECFEF9254
:103BC000FF920F931F93DC017B011A960D911C91BC
:103BD0001B9718962D913C911997ED91FC910288B5
:103BE000F389E02D50E040E070E060E019951F910E
:103BF0000F91FF90EF9008956F927F928F929F9216
:103C0000AF92BF92CF92DF92EF92FF920F931F93EA
:103C1000CF93DF936C015A014801EB013B01620E27
:103C2000731EC615D70574F4D601ED91FC9104847A
:103C3000F585E02D87019401A501BE01C601199506
:103C40002196EFCFDF91CF911F910F91FF90EF90D1
:103C5000DF90CF90BF90AF909F908F907F906F90AC
:103C60000895EF92FF920F931F93DC017801260FC6
:103C7000371F21503109ED91FC910284F385E02D2D
:103C80008A0119951F910F91FF90EF900895EF927F
:103C9000FF920F931F93DC017801240F351F8901D8
:103CA00001501109ED91FC910284F385E02D9B01F7
:103CB00019951F910F91FF90EF9008956F927F9249
:103CC0008F929F92AF92BF92CF92DF92EF92FF922C
:103CD0000F931F93CF93DF93EC016B015A013901CE
:103CE0004801E881F9810684F785E02D870119955F
:103CF000A501480D591D41505109E881F9810684FB
:103D0000F785E02D9301B601CE011995E881F9817F
:103D10000484F585E02D9401A501B601CE01199525
:103D2000B601660D771D61507109E881F98104843F
:103D3000F585E02D9401A501CE011995DF91CF9174
:103D40001F910F91FF90EF90DF90CF90BF90AF90B9
:103D50009F908F907F906F9008952F923F924F92F7
:103D60005F926F927F928F929F92AF92BF92CF920B
:103D7000DF92EF92FF920F931F93CF93DF934C014B
:103D8000EB016A015901C801A8014C195D0957FFEF
:103D900003C051954195510995012C1B3D0B37FFEF
:103DA00003C03195219531092417350754F47A2D34
:103DB0006B2D5C01872F962F7C2F6D2FE601C72E70
:103DC000D62EAC16BD0654F47C2D6D2D6C01872FBC
:103DD000962F7C2F6D2FE501A72EB62E25014C1AAC
:103DE0005D0A3C016C187D0877FE03C071946194F4
:103DF0007108820157FE02C00F5F1F4F159507958E
:103E0000C816D906F4F022242A94322C2417350738
:103E1000E4F4AC16BD068CF1D401ED91FC91008464
:103E2000F185E02D9701AE01B601C401199506197F
:103E3000170917FF04C0C20CD31C040D151D2196D1
:103E4000E8CF22242394312CE1CFAC16BD06ACF090
:103E5000D401ED91FC910084F185E02D9701A6013C
:103E6000BE01C40119950619170917FF04C0C20C39
:103E7000D31C040D151D2196E8CFDF91CF911F9122
:103E80000F91FF90EF90DF90CF90BF90AF909F90F9
:103E90008F907F906F905F904F903F902F900895FC
:103EA000CF93DF93FC01DB0112968D919C911397C8
:103EB0009383828314964D915D916D917C911797B8
:103EC000448355836683778318964D915D916D91F8
:103ED0007C911B974087518762877387BF01645F1E
:103EE0007F4FCD010C969F01275E3F4FEC0149911A
:103EF000CE01EB014993BE01C217D307B9F759961A
:103F00008D919C91928F818FCF01DF91CF910895F8
:103F10008F539B4FFC0180819181A281B38104C0AA
:103F2000B695A795979587956A95D2F7817008956C
:103F3000DC01ED91FC910190F081E02D1994EF925C
:103F4000FF920F931F93CF93DF938C017B01D0E0FF
:103F5000C0E0F701EC0FFD1F6491662361F0D8010A
:103F6000ED91FC910190F081E02DC8011995892B0C
:103F700011F02196EECFCE01DF91CF911F910F91DD
:103F8000FF90EF900895CF92DF92EF92FF920F9300
:103F90001F93CF93DF937C016A0110E000E00C15C2
:103FA0001D0581F0EB01D701ED91FC910190F081AD
:103FB000E02D6991C7011995892B21F00F5F1F4FE3
:103FC000BE01EDCFC801DF91CF911F910F91FF90FE
:103FD000EF90DF90CF900895089590E080E00895ED
:103FE000FC01A089B1898C91A689B78982FD0FC097
:103FF0009C91818D8F5F8F73228D821749F0A18DE7
:10400000AE0FBF2FB11D5D969C93818F08958C914B
:104010000895FC01538D448D252F30E0842F90E0CE
:10402000821B930B541710F0CF96089501970895B3
:10403000FC01918D828D981761F0A28DAE0FBF2F7C
:10404000B11D5D968C91928D9F5F9F73928F90E0D2
:1040500008958FEF9FEF0895FC01918D828D981741
:1040600031F0828DE80FF11D858D90E008958FEF7E
:104070009FEF0895FC01818D228D90E0805C9F4F21
:10408000821B91098F739927089588EA96E00E9410
:104090003A209C0181E0232B09F480E0089585E417
:1040A00097E00E943A209C0181E0232B09F480E0F4
:1040B00008958DE298E00E943A209C0181E0232B34
:1040C00009F480E00895FC01A48DA80FB92FB11D5B
:1040D000A35ABF4F2C91848D90E001968F7399273E
:1040E000848FA689B7892C93A089B1898C9180642B
:1040F0008C93938D848D981306C00288F389E02DEC
:1041000080818F7D80830895EF92FF920F931F939C
:10411000CF93DF93EC01F62E81E0888F9B8D8C8D01
:10412000981316C0E889F989808185FF11C0EE894E
:10413000FF896083E889F98980818064808381E0D8
:1041400090E0DF91CF911F910F91FF90EF90089534
:104150000B8D10E00F5F1F4F0F731127E02E8C8D1A
:104160008E110CC00FB607FCFACFE889F98980815F
:1041700085FFF5CFCE010E946320F1CFEB8DEC0FD0
:10418000FD2FF11DE35AFF4FF0820B8FEA89FB8967
:1041900080818062D3CFCF93DF93EC01888D882319
:1041A000B9F0AA89BB89E889F9898C9185FD03C09A
:1041B000808186FD0DC00FB607FCF7CF8C9185FF7F
:1041C000F2CF808185FFEDCFCE010E946320E9CF41
:1041D000DF91CF91089580E090E0892B29F00E9433
:1041E000592081110E94000080E090E0892B29F085
:1041F0000E944F2081110E94000080E090E0892BF6
:1042000029F00E94452081110E94000080E090E08A
:10421000892B49F080E090E0892B29F00E94000072
:1042200081110C94000008958250823108F048C03A
:10423000E82FF0E08827E655FA468F4F0C945F95FB
:10424000809180008F778093800008958091800016
:104250008F7DF9CF80918000877FF5CF84B58F77F0
:1042600084BD089584B58F7DFBCF8091B0008F779A
:104270008093B00008958091B0008F7DF9CF809138
:1042800090008F77809390000895809190008F7DAB
:10429000F9CF80919000877FF5CF8091A0008F7734
:1042A0008093A00008958091A0008F7DF9CF809128
:1042B000A000877FF5CF809120018F778093200128
:1042C0000895809120018F7DF9CF80912001877F13
:1042D000F5CFCF93DF93282F30E0F901E75EF04E62
:1042E0008491F901E359F64ED491F901ED53F64E5C
:1042F000C491CC23A1F081110E941421EC2FF0E095
:10430000EE0FFF1FE35DFB4FA591B491EC91ED2300
:1043100081E090E009F480E0DF91CF91089580E0A2
:1043200090E0FACF1F93CF93DF93162F282F30E022
:10433000F901E75EF04E8491F901E359F64ED4910C
:10434000F901ED53F64EC491CC23A1F081110E94E6
:104350001421EC2FF0E0EE0FFF1FED5EFB4FA59157
:10436000B4918FB7F894EC91111108C0D095DE2369
:10437000DC938FBFDF91CF911F910895DE2BF8CF93
:104380001092740681E08093730610926E0661E0CD
:1043900084E10E94922161E085E10E949221E9EB93
:1043A000F0E080818E7F808380818D7F808388E4B0
:1043B0008093B80085E48093BC00089510929B061A
:1043C00010929A0610922B0610922D060E94C02180
:1043D0000E94A6170C949E17CF93DF9391E09093C1
:1043E000DF058823B9F0C091B800D091BA00809160
:1043F000BC008A7B8093BC0060E084E10E94922133
:1044000060E085E10E9492210E94C021D093BA0011
:10441000C093B800DF91CF910895CF93DF93EC0163
:104420008091D403811109C081E08093D4038091ED
:10443000E2079091E3070E948D1860E08C81DF9184
:10444000CF910C94922161E0FC0184810E94922121
:104450008091D40381111092D4030895CF93DF93F8
:10446000EC018E81882389F08F8198859C012F5FD4
:104470003F4F38872F838230924018F40E948A1869
:10448000F3CFCE010E9423221E82DF91CF910895A7
:10449000CF93DF9390E0FC01E359F64E24918D53C6
:1044A000964EFC0184918823C9F090E0880F991FF3
:1044B000FC01ED5AF64EA591B491FC01ED5EFB4F67
:1044C000C591D49161110DC09FB7F8948C9120953E
:1044D00082238C938881282328839FBFDF91CF91EB
:1044E0000895623051F49FB7F8943C91822F8095E3
:1044F00083238C93E8812E2BEFCF8FB7F894EC9128
:104500002E2B2C938FBFEACFCF93DF93EC0161E08A
:1045100084E00E944822209731F460E084E0DF913B
:10452000CF910C949221CF3FD10511F461E0F6CFE9
:10453000EDE1FFE1E491E250E23108F0A0C0F0E0EB
:104540008827E454FA468F4F0C945F9584B58068B1
:1045500084BDC7BDDF91CF91089584B5806284BDCD
:10456000C8BDF8CF80918000806880938000D09390
:104570008900C0938800EECF809180008062809394
:104580008000D0938B00C0938A00E4CF809180009C
:10459000886080938000D0938D00C0938C00DACF28
:1045A0008091B00080688093B000C093B300D2CFF8
:1045B0008091B00080628093B000C093B400CACFF5
:1045C00080919000806880939000D0939900C09370
:1045D0009800C0CF80919000806280939000D0932B
:1045E0009B00C0939A00B6CF809190008860809322
:1045F0009000D0939D00C0939C00ACCF8091A00010
:1046000080688093A0008091A0008F7B8093A000A1
:10461000D093A900C093A8009DCF8091A000806294
:104620008093A000D093AB00C093AA0093CF809159
:10463000A00088608093A000D093AD00C093AC0030
:1046400089CF80912001806880932001D093290137
:10465000C09328017FCF8091200180628093200148
:10466000D0932B01C0932A0175CF809120018860DF
:1046700080932001D0932D01C0932C016BCFC038C3
:10468000D1050CF44ACF52CF789484B5826084BDB2
:1046900084B5816084BD85B5826085BD85B5816046
:1046A00085BDEEE6F0E0808181608083E1E8F0E0A6
:1046B0001082808182608083808181608083E0E8D5
:1046C000F0E0808181608083E1EBF0E080818460B4
:1046D0008083E0EBF0E0808181608083E1E9F0E0BD
:1046E000808182608083808181608083E0E9F0E066
:1046F000808181608083E1EAF0E080818260808354
:10470000808181608083E0EAF0E080818160808345
:10471000E1E2F1E08081826080838081816080833A
:10472000E0E2F1E0808181608083EAE7F0E080816F
:1047300084608083808182608083808181608083C7
:104740008081806880831092C1000895CF93DF93A9
:1047500000D00F92CDB7DEB73FB7F8948091D00369
:104760009091D103A091D203B091D30326B5A89B19
:1047700005C02F3F19F00196A11DB11D3FBFBA2FF3
:10478000A92F982F8827820F911DA11DB11D9C0173
:10479000AD0162E0220F331F441F551F6A95D1F708
:1047A000CA01B9010F900F900F900F90DF91CF9138
:1047B0000895CF92DF92EF92FF921F93CF93DF93F2
:1047C00000D000D0CDB7DEB78D83162F0E94A62370
:1047D0006B017C01809174068E83811153C081E04E
:1047E00080937406809373069FEF909372061092E5
:1047F0007106910F9093700680936F0680916F06FB
:104800009D81990F982B90936F0680916E06813051
:1048100009F098C010926E060E94A6236B017C01DD
:1048200080916F068093BB00809176069091770609
:10483000A0917806B0917906892B8A2B8B2B09F4ED
:104840005EC00E94A62369837A838B839C834091F8
:104850007606509177066091780670917906898185
:104860009A81AB81BC818C199D09AE09BF0948179B
:1048700059076A077B0708F042C0809175060E94BD
:10488000EC212EC08091760690917706A091780653
:10489000B0917906892B8A2B8B2B09F49BCF0E9430
:1048A000A62369837A838B839C83409176065091FB
:1048B0007706609178067091790689819A81AB813B
:1048C000BC818C199D09AE09BF09481759076A07B1
:1048D0007B0708F07FCF809175060E94EC211E8235
:1048E0008E8126960FB6F894DEBF0FBECDBFDF9146
:1048F000CF911F91FF90EF90DF90CF90089580911E
:10490000BC0083FD8DCF85EC8093BC000E94A62364
:104910006B017C01809174068130B1F08091710649
:104920008117D8F5809171068E832EE436E0AAE7D0
:10493000B6E0F9018E2F821B9E81891788F681913E
:104940008D93F8CF85EEE0CF809176069091770633
:10495000A0917806B0917906892B8A2B8B2BD1F206
:104960000E94A62369837A838B839C834091760679
:1049700050917706609178067091790689819A81C5
:10498000AB81BC818C199D09AE09BF094817590735
:104990006A077B0708F0BECF70CF1E83C6CF0E9488
:1049A000D92310929B0680939A0608950E94D923DA
:1049B00010929B0680939A06089561E0FC01808125
:1049C0000E94D62480E020919A0690919B06291798
:1049D00019F00E944117F7CF0895CF92DF92EF921E
:1049E000FF920F931F93CF93DF9300D000D0CDB7EA
:1049F000DEB78E83162F042F91E0613208F0F1C0EC
:104A00000E94A6236B017C01909174069D839111F5
:104A100076C082E080937406009373068FEF8093D4
:104A2000720610927106109370062EE236E0AEE424
:104A3000B6E0F9018E2F821B811708F49FC01092F7
:104A40006F0680916F069E81990F982B90936F0649
:104A500080916E06813009F094C010926E060E941B
:104A6000A6236B017C0180916F068093BB0080912F
:104A7000760690917706A0917806B0917906892BF9
:104A80008A2B8B2BE1F00E94A62369837A838B8388
:104A90009C834091760650917706609178067091DC
:104AA000790689819A81AB81BC818C199D09AE09F7
:104AB000BF09481759076A077B0708F449C0809166
:104AC000BC0083FDD0CF85EC8093BC000E94A62360
:104AD0006B017C0180917406823009F454C080918E
:104AE00072068F3FD9F180917206803209F47BC043
:104AF00080917206803309F478C084E02EC08091E2
:104B0000760690917706A0917806B0917906892B68
:104B10008A2B8B2B09F478CF0E94A62369837A8392
:104B20008B839C834091760650917706609178063E
:104B30007091790689819A81AB81BC818C199D091C
:104B4000AE09BF09481759076A077B0708F05CCF11
:104B5000809175060E94EC2185E08D838D812696DB
:104B60000FB6F894DEBF0FBECDBFDF91CF911F917E
:104B70000F91FF90EF90DF90CF90089581918D93EA
:104B800059CF85EEA1CF8091760690917706A091BE
:104B90007806B0917906892B8A2B8B2B09F49ACF52
:104BA0000E94A62369837A838B839C834091760637
:104BB00050917706609178067091790689819A8183
:104BC000AB81BC818C199D09AE09BF0948175907F3
:104BD0006A077B0708F07ECF809175060E94EC2162
:104BE00095E09D83BBCF82E0B8CF93E0FACF482F0A
:104BF00060912D0680912C060E94ED2410922B06C8
:104C000010922D0610922A06089581E00C94F72543
:104C1000CF92DF92EF92FF920F931F93CF93DF9388
:104C200000D000D0CDB7DEB78091600C0E945F1736
:104C30000E9405268091600C64E070E090E00E9484
:104C4000CF2490919A0680919B069817F1F30E94C9
:104C500041178093620C0E9441178093610C0E945F
:104C600041178093640C0E9441178093630C0E944B
:104C700005268091620C90E09C0146E035952795D1
:104C80004A95E1F72093650C982F882788279F7312
:104C90002091610C822B9C0150E040E029833A83F3
:104CA0004B835C83CA01B9010E94409120E030E04F
:104CB00048EC52E469837A838B839C8369817A818F
:104CC0008B819C810E94C39120E03CEF4FE756E42A
:104CD00069837A838B839C8369817A818B819C81B0
:104CE0000E945194F62E072F182F9E83862F902F07
:104CF000A12FBE818093580C9093590CA0935A0C0D
:104D0000B0935B0C8091640C30E4839FC00111244C
:104D10002091630C30E03595279535952795820FC6
:104D2000931F9C0150E040E029833A834B835C83CE
:104D3000CA01B9010E94409120E03CEF4FE756E4E0
:104D400069837A838B839C8369817A818B819C813F
:104D50000E94519420E030E045E253E469837A8375
:104D60008B839C8369817A818B819C810E94C39112
:104D700020E030E040E252E469837A838B839C83B5
:104D800069817A818B819C810E94E493F62FE72FC1
:104D9000462F572FBC0140935C0C50935D0C6093E1
:104DA0005E0C70935F0C20E030E040E251E4F98348
:104DB000EA838B839C8369817A818B819C810E94A9
:104DC000C3916B01E82E9D8320E030E0A901698347
:104DD000DA828B839C8369817A818B819C810E949A
:104DE000F99420E030E040E05FE387FD84C0698112
:104DF0007A818B819C810E94E59369837A838B837E
:104E00009C8369817A818B819C810E94C3940E94DA
:104E1000429120E030E040E251E469837A838B8361
:104E20009C8369817A818B819C810E9451946093DB
:104E3000E5087093E6088093E7089093E80820E07F
:104E400030E040E251E4F9820A831B83AE81AC83F7
:104E500069817A818B819C810E94C3918B018E83B1
:104E60009D8320E030E0A90169831A838B839C83B2
:104E700069817A818B819C810E94F99420E030E0E5
:104E800040E05FE387FD43C069817A818B819C812B
:104E90000E94E59369837A838B839C8369817A81FD
:104EA0008B819C810E94C3940E94429120E030E05B
:104EB00040E251E469837A838B839C8369817A81A0
:104EC0008B819C810E9451946093E9087093EA0859
:104ED0008093EB089093EC0826960FB6F894DEBF0B
:104EE0000FBECDBFDF91CF911F910F91FF90EF903B
:104EF000DF90CF900895C982DA82EB829D819C83F6
:104F000069817A818B819C810E94E49376CF0983A9
:104F10001A839E819B83AD81AC8369817A818B8169
:104F20009C810E94E493B6CFCF93C82F88E30E9460
:104F30005F176C2F8CE996E00E944E180E940526A0
:104F400061E088E30E94D6240E944117CF91089522
:104F5000DF92EF92FF920F931F93CF93DF9300D0D6
:104F600000D0CDB7DEB788E60E945F1790E080E002
:104F70000E9454170E94052667E070E088E690E0E2
:104F80000E94CF240E9441178F77282F30E094E0B1
:104F9000359527959A95E1F7922F990F990F122F32
:104FA000191B110F180F0E9441179C0134E09595B1
:104FB00087953A95E1F78F709927982F990F990F58
:104FC000082F091B000F020F0E9441179C0144E0AB
:104FD000959587954A95E1F78F709927982F990FA6
:104FE000990FF82EF91AFF0CF20E0E9441170E9439
:104FF00041179C0154E0959587955A95E1F78F707C
:105000009927982F990F990FE82EE91AEE0CE20EC6
:105010000E9441179C0164E0959587956A95E1F798
:105020008F709927982F990F990FD82ED91ADD0CC8
:10503000D20E0E944117AC0174E0959587957A9540
:10504000E1F78F709927982F990F990F282F291B17
:10505000220F240F3D2DA701B80180E090E0269695
:105060000FB6F894DEBF0FBECDBFDF91CF911F9179
:105070000F91FF90EF90DF900895EF92FF920F93C2
:105080001F93CF93DF9300D000D0CDB7DEB77C0164
:105090008B010E94A827E32F872F30E02C5E3F4F23
:1050A000322F2227330F90E2E99FF00111242E2B9B
:1050B0003F2B242BF70131832083F0E26F9FB00157
:1050C0001124252F30E0322F2227330F330F330FD7
:1050D000622B732B90E095958795682B792BF801BF
:1050E0007183608326960FB6F894DEBF0FBECDBFE6
:1050F000DF91CF911F910F91FF90EF900895CF9383
:10510000DF93EC010E94A8272BA33CA34DA35EA331
:105110006FA378A7DF91CF910895CF93C62FFC019D
:1051200080810E945F176C2F8CE996E00E944E18D8
:105130000E940526982F81E0911180E0CF9108957B
:105140000F931F93CF93DF9300D000D000D00F9226
:10515000CDB7DEB78D839E83AD81BE8113968C91D2
:1051600013978617E9F113966C93062F10E0862F9C
:1051700090E0B0E0A0E089839A83AB83BC83BC015C
:10518000CD010E9442919B01AC0160E070E08AE891
:1051900092E40E9451946F83788789879A87AD81C2
:1051A000BE8114966D937D938D939C93179785E0A4
:1051B000159507958A95E1F70064602FCD010E944F
:1051C0008D28602F8D819E812A960FB6F894DEBFC0
:1051D0000FBECDBFDF91CF911F910F910C948D2801
:1051E0002A960FB6F894DEBF0FBECDBFDF91CF91E8
:1051F0001F910F9108950F931F93CF93DF93EC01AD
:1052000088810E945F1762E070E0888199810E9426
:10521000CF240E94411700E0182F0E944117082B4D
:10522000192B0E940526811108C081E08B87C801D7
:10523000DF91CF911F910F9108950FEF1FEFF7CFDF
:105240001F93CF93DF93162FEA01FC0180810E9408
:105250005F17612F8CE996E00E944E186D2F8CE944
:1052600096E00E944E186C2F8CE996E00E944E1832
:10527000DF91CF911F910C940526CF93DF93D62F0A
:10528000C42FFC0180810E945F176D2F8CE996E08E
:105290000E944E186C2F8CE996E00E944E18DF9108
:1052A000CF910C9405260F931F93CF93DF938C011E
:1052B000D62F0E94DD2421E030E001C0220FDA95D4
:1052C000EAF72095C22FC823F80180810E945F175A
:1052D0006C2F8CE996E00E944E18DF91CF911F91C0
:1052E0000F910C940526683010F40C9453290895FE
:1052F0001F93CF93DF93EC01162F0E94DD2421E052
:1053000030E001C0220F1A95EAF7182F122B88817E
:105310000E945F17612F8CE996E00E944E18DF9182
:10532000CF911F910C940526683010F40C947829C5
:1053300008951F93CF93DF93EC01162F88810E946D
:105340005F17612F8CE996E00E944E1880E00E9462
:10535000F72561E088810E94D62480E020919A069A
:1053600090919B06291719F00E944117F7CFDF9102
:10537000CF911F9108950F931F93CF93DF938C01CB
:10538000C62F6AE80E949929CC2381F02C2F215046
:10539000330BB901C1E0D0E09E0102C0220F331FE0
:1053A0006A95E2F7B9016095C62FC8234C2F6AE8C9
:1053B000C801DF91CF911F910F910C943D290F935C
:1053C0001F93CF93DF93EC01698D8F8598890E949D
:1053D000942910E000E061E0600F8A8D90E0002EDB
:1053E00002C0959587950A94E2F780FF04C08B89E7
:1053F0009C890E94BB290F5F1F4F0830110559F788
:10540000698D8F8598890E947329EB89FC89818138
:10541000882319F060E00E94922119821A821B826F
:105420001C821D821E821F8218861E86DF91CF91EC
:105430001F910F9108959F92AF92BF92CF92DF92EA
:10544000EF92FF920F931F93CF93DF9300D000D082
:10545000CDB7DEB78C01E42EA52EB62E7D83DC0100
:1054600059966C9159971F968D919C910E94942901
:1054700020E030E044ED51E4E982AA82BB82BD81A4
:10548000BC8369817A818B819C810E943B91181633
:1054900074F020E030E040E85FE369817A818B813D
:1054A0009C810E94F994FF24F39487FF2FC020E091
:1054B00030E044ED51E4E982AA82BB82FD81FC83A5
:1054C00069817A818B819C810E94F99418160CF075
:1054D0008CC020E030E044E552E469817A818B8120
:1054E0009C810E943B9118160CF47FC020E030E0B4
:1054F00040E05FE369817A818B819C810E94C39146
:10550000E62EA72EB82E9D8342E0F42ED8015396A6
:10551000CD90DC9020E030E044ED51E4E982AA82B5
:10552000BB82BD81BC8369817A818B819C810E9411
:105530003B9187FFA7C020E030E040E85FE369814E
:105540007A818B819C810E94F994181634F0E12CA9
:10555000A12C20E8B22EFFE3FD836EE2C6010E947B
:1055600099298E8320E030E040EA50E4E982AA8263
:10557000BB828D818C8369817A818B819C810E9421
:105580003B9187FF86C0AE81A13009F082C040E028
:105590006EE2C6010E943D2920E030E040E85EE373
:1055A000E982AA82BB82BD81BC8369817A818B81B9
:1055B0009C810E94E4932DEC3CEC4CEC5CE3698311
:1055C0007A838B839C8369817A818B819C810E9401
:1055D000519469837A838B839C8369817A818B81DF
:1055E0009C810E94CA94962E88C020E030E044E559
:1055F00052E4E982AA82BB82BD81BC8369817A813F
:105600008B819C810E94F99418160CF520E030E003
:105610004FE952E469817A818B819C810E943B91A0
:105620001816ACF0D8018C91833088F020E030E07F
:1056300040E450E469817A818B819C810E9451947D
:10564000E62EA72EB82E9D8333E0F32E5FCFF80110
:10565000618D878590890E947329F1E0FD838D819A
:1056600026960FB6F894DEBF0FBECDBFDF91CF9167
:105670001F910F91FF90EF90DF90CF90BF90AF9070
:105680009F900895E12CA12C94EDB92E21E42D8357
:1056900064CF20E030E040EA50E4E982AA82BB8295
:1056A000ED81EC8369817A818B819C810E94F994E0
:1056B00087FD1CC0FE81F1111DC041E06EE2C601F4
:1056C0000E943D2920E030E040E85FE3E982AA82C1
:1056D000BB828D818C8369817A818B819C810E94C0
:1056E000E4932DEC3CEC4CEC5DE369CF2E8122235E
:1056F00009F452CF3E81313029F3492D69E8C601C2
:105700000E943D29D801BC91BF19BD831982CC24C8
:10571000C394D12CF801828D90E0098002C0959548
:1057200087950A94E2F7F981FF5FF98380FFF2CF52
:10573000F930D0F4D8015396AD90BC906AE8C50119
:105740000E949929482FB981BB2379F1EB2FE150B1
:10575000FF0B960102C0220F331FEA95E2F7422B9E
:105760006AE8C5010E943D29FA94F110D3CF3D812A
:10577000D8013323E1F05A968C9190E0098002C061
:10578000959587950A94E2F7B981BF5FB98380FF49
:10579000EECFB93030F46B2FF801838994890E94E1
:1057A000BB29FD81F150FD83E2CF4FEFD9CF599650
:1057B0006C9159971F968D919C910E947329D801E5
:1057C0005396ED91FC918181882319F061E00E944C
:1057D000922181E0F801868742CF8F929F92AF920B
:1057E000BF92CF92DF92EF92FF92CF93DF9300D0E0
:1057F0000F92CDB7DEB76B017C010E94A6234B014F
:105800005C01C114D104E104F104C9F00E94A62393
:10581000DC01CB0188199909AA09BB09883E93408C
:10582000A105B10570F321E0C21AD108E108F10821
:1058300088EE880E83E0981EA11CB11CE2CF0F9069
:105840000F900F900F90DF91CF91FF90EF90DF902E
:10585000CF90BF90AF909F908F900895CF93FC0111
:1058600082818F3F11F4C0E016C0628313866232DA
:10587000C0F4603220F4623188F46031A0F3CF01CB
:105880000E948D28C82F882371F365E070E080E0C6
:1058900090E00E94ED2B8C2FCF910895633119F782
:1058A000EECF633201F7EBCF1F93CF93DF93EC0181
:1058B000162F88810E945F17612F8CE996E00E9465
:1058C0004E180E94052661E070E080E090E00E94A2
:1058D000ED2B88810E945F17888162E070E0082EBE
:1058E000000C990B0E94CF2490919A0680919B0600
:1058F0009817F1F30E944117D82F0E944117C82F23
:105900000E94052680E09D2F8C2BDF91CF911F9167
:1059100008950895CF93DF93EC01DB01AB2B81F069
:10592000FB0101900020E9F73197AF01461B570BAF
:10593000E881F9810280F381E02DDF91CF91199404
:1059400090E080E0DF91CF9108956EEE72E08FE1FC
:1059500099E00C948A2CCF93DF93BC018FE199E0FE
:105960000E949F1FEC010E94A52C8C0F9D1FDF91B0
:10597000CF9108956F927F928F929F92AF92BF9234
:10598000CF92DF92EF92FF920F931F93CF93DF930B
:10599000CDB7DEB7A1970FB6F894DEBF0FBECDBF6F
:1059A0003C01142F052F962E872E19A2223008F4C1
:1059B0002AE05E0181E2A80EB11CC22ED12CF12C8E
:1059C000E12C612F702F892D982DA70196010E943F
:1059D0003D95812F902FA92DB82D122F032F942E96
:1059E000852E6A3014F5605DF50162935F018C15B8
:1059F0009D05AE05BF0528F7BF01C3010E948A2C93
:105A0000A1960FB6F894DEBF0FBECDBFDF91CF9148
:105A10001F910F91FF90EF90DF90CF90BF90AF90CC
:105A20009F908F907F906F900895695CDDCF0C946C
:105A30008A2CCF93DF93FC01A081B181AB5ABF4F79
:105A40008FEF9FEF51969C938E93509753961C9295
:105A50001E9252974085518557FF02C04F5F5F4F9E
:105A60005595479524813581420F531F4450510964
:105A700062857385EB0109900020E9F72197C61B29
:105A8000D70B2681378137FF02C02F5F3F4F3595F7
:105A9000279582819381280F391FE6E0EC9FC00192
:105AA000ED9F900D112496958795281B390B1D9617
:105AB0003C932E931C971F965C934E931E97CD019B
:105AC000DF91CF910C94172D6F927F928F929F92BE
:105AD000AF92BF92CF92DF92EF92FF920F931F93FC
:105AE000CF93DF933C014C0186EE880E911CD401CC
:105AF0000D911C915301B4EEAB0EB11CF501208148
:105B000031816301F2EECF0ED11CD6014D915C9133
:105B1000E301C052DF4F68817981F3018081918177
:105B2000EE24EA94FE2C8B5A9F4F0E94381BD3011F
:105B3000ED91FC91EB5AFF4F118A108A8FEF9FEF86
:105B4000938B828BD6018D919C9111970196288120
:105B500039812F5F3F4F3587248797878687169730
:105B60006D917C91CF010E94172DF301808191816D
:105B7000F601A081B181F40120813181A20FB31F10
:105B800018973C9760817181FB0101900020E9F733
:105B9000AF0141505109461B570B8B5A9F4FF501DE
:105BA0002081318137FF02C02F5F3F4F3595279508
:105BB000E881F9812E0F3F1F16E0149FF001159F19
:105BC000F00D1124F695E7952E1B3F0BFC01358750
:105BD0002487B787A6870E94172DD301ED91FC91EA
:105BE000EB5AFF4F82EE99ED918B808B8FEF9FEFF9
:105BF000938B828BD601ED90FC90BFEFEB1AFB0AE2
:105C0000C30182529F4FDC016D917C91DB010D90AD
:105C10000020E9F79D0121503109261B370B8881AF
:105C20009981D5014D915C91840F951F0197129F29
:105C3000A001139F500D1124841B950B9587848719
:105C4000F786E686CF010E94172DF601408151812B
:105C5000D4018D919C91480F591F4A505109688178
:105C60007981F50120813181260F371FD3018D9174
:105C70009C91F12CE12C8A018B5A9F4F0E9416199E
:105C8000DF91CF911F910F91FF90EF90DF90CF9018
:105C9000BF90AF909F908F907F906F9008952F92BC
:105CA0003F924F925F926F927F928F929F92AF92AC
:105CB000BF92CF92DF92EF92FF920F931F93CF93F9
:105CC000DF93CDB7DEB72E970FB6F894DEBF0FBEC9
:105CD000CDBF6C016B837C8349835A832D873E87BC
:105CE0005801ED85FE8501900020E9F73197CF013D
:105CF0002D853E85821B930BF80101900020E9F76A
:105D00003197E01BF10B8E179F0709F085C0412CDE
:105D100096E0292E49815A81485F5F4F5C874B8707
:105D2000242D30E0ED85FE8501900020E9F73197C4
:105D30008D859E85E81BF90B2E173F0708F06CC078
:105D4000FC01E20FF31F80812A0D3B1DD9012C912C
:105D5000821709F453C0B5E02B02900111248B0285
:105D6000C0011124FC01E75EF54E3F010B811C814F
:105D7000429C000D111D1124A8014B5F5F4F5887F5
:105D80004F83D901A81BB90BBA87A987F3013490B7
:105D9000E985FA85E60DF71DE491532C5E225094B7
:105DA00089809A802E2F30E03E832D83E0FF28C02B
:105DB00050FE26C0D601ED91FC910084F185E02DC6
:105DC0002FEF3FEFA401B801C60119953694ED817C
:105DD000FE81F595E7955694BFEF8B1A9B0A2B85AC
:105DE0003C8528153905F1F63FEF631A730A0F5FFA
:105DF0001F4F4F8158854017510741F6439490CF6C
:105E000030FEE4CF50FEE2CFD601ED91FC9100844C
:105E1000F185E02D9701D6CF2E960FB6F894DEBF10
:105E20000FBECDBFDF91CF911F910F91FF90EF90EB
:105E3000DF90CF90BF90AF909F908F907F906F90AA
:105E40005F904F903F902F9008952F923F924F92E6
:105E50005F926F927F928F929F92AF92BF92CF92FA
:105E6000DF92EF92FF920F931F93CF93DF9300D0B7
:105E700000D000D00F92CDB7DEB77C013B014B8341
:105E80005C8329873A87180129853A85220F331FB9
